:100000000C942A001895000018950000189500001F
:10001000189500001895000018950000189500002C
:10002000189500001895000018950000189500001C
:10003000189500001895000018950000189500000C
:1000400018950000189500001895000018950000FC
:10005000189500008FE58DBFC8E3E0E24E2E84E0E6
:100060008EBFD4E0F4E05F2EA89584B7082E877F7A
:1000700084BF88E1992781BD91BDEEEFF3E0A0E652
:10008000B0E088278D933197E9F766240C944600F9
:10009000F894FFCFA0E6B0E00D911C91003050E045
:1000A00015071CF011F00C9457000C946300939802
:1000B000929AA0E6B0E08D919C9190934900809334
:1000C00048000C949A00A0E6B0E00D911C9100301D
:1000D00050E0150711F00C94790093989298A0E6DF
:1000E000B0E08D919C9190934900809348000C94CE
:1000F0009A00A0E6B0E00D911C91003050E0150789
:100100000CF402C00C949A0000E010E0A0E6B0E00D
:100110004D915C91041B150BA0E6B0E00D931C9370
:10012000939A9298A0E6B0E08D919C9190934900AB
:1001300080934800A2E6B0E00D911C91003050E0A1
:1001400015071CF011F00C94A7000C94AF00AF98A9
:10015000AE9AA2E6B0E08C9183BD0C94DE00A2E6DC
:10016000B0E00D911C91003050E0150711F00C9497
:10017000C100AF98AE98A2E6B0E08C9183BD0C941C
:10018000DE00A2E6B0E00D911C91003050E01507B2
:100190000CF402C00C94DE0000E010E0A2E6B0E037
:1001A0004D915C91041B150BA2E6B0E00D931C93DE
:1001B000AF9AAE98A2E6B0E08C9183BDA4E6B0E021
:1001C0000D911C91003050E015071CF011F00C94BB
:1001D000EB000C94F300A898A99AA4E6B0E08C91E7
:1001E0008CBF0C942201A4E6B0E00D911C9100306C
:1001F00050E0150711F00C940501A898A998A4E601
:10020000B0E08C918CBF0C942201A4E6B0E00D917B
:100210001C91003050E015070CF402C00C94220130
:1002200000E010E0A4E6B0E04D915C91041B150BDA
:10023000A4E6B0E00D931C93A89AA998A4E6B0E0B8
:100240008C918CBFA6E6B0E00D911C91003050E07F
:1002500015071CF011F00C942F010C943B0196989B
:10026000909AA6E6B0E08D919C9190934B0080937C
:100270004A000C947201A6E6B0E00D911C9100308A
:1002800050E0150711F00C94510196989098A6E64D
:10029000B0E08D919C9190934B0080934A000C9418
:1002A0007201A6E6B0E00D911C91003050E01507F8
:1002B0000CF402C00C94720100E010E0A6E6B0E07D
:1002C0004D915C91041B150BA6E6B0E00D931C93B9
:1002D000969A9098A6E6B0E08D919C9190934B00F1
:1002E00080934A0008953197F1F70895689462F871
:0802F0000895E89462F80895F6
:00000001FF
