:100000000C942A001895000018950000189500001F
:10001000189500001895000018950000189500002C
:10002000189500001895000018950000189500001C
:10003000189500001895000018950000189500000C
:1000400018950000189500001895000018950000FC
:10005000189500008FE58DBFC8E3E0E24E2E84E0E6
:100060008EBFD4E0F4E05F2EA89584B7082E877F7A
:1000700084BF88E1992781BD91BDEEEFF3E0A0E652
:10008000B0E088278D933197E9F783E389B980E061
:1000900080BD88E18AB966248FEF84BB8FEF81BB76
:1000A00080E08ABB8D9A8C9A81EA8FBD81E08EBDFB
:1000B00086E886B980E087B9379AB0990C946600D3
:1000C00081E090E0A8E6B0E08D939C93A6E3B0E0D9
:1000D0000C9100FB81E00EF080E08F93A8E6B0E089
:1000E0000D911C91013050E0150781E009F080E08E
:1000F0009F918923882311F40C948A00C29AC39893
:100100008EEB90E09BBD8ABD969A97988EEB90E01F
:1001100099BD88BD0C945D00F894FFCF3197F1F73D
:0E0120000895689462F80895E89462F80895CE
:00000001FF
