:100000000C942A001895000018950000189500001F
:10001000189500001895000018950000189500002C
:10002000189500001895000018950000189500001C
:10003000189500001895000018950000189500000C
:1000400018950000189500001895000018950000FC
:10005000189500008FE58DBFC8E3E0E24E2E84E0E6
:100060008EBFD4E0F4E05F2EA89584B7082E877F7A
:1000700084BF88E1992781BD91BDEEEFF3E0A0E652
:10008000B0E088278D933197E9F70E947C006624C1
:100090008FEF84BB0E9467008AE090E00E94F70027
:1000A0008FE717E00E947600E4E1F2E00E94600032
:1000B0008AE090E00E94F7000C944A00F894FFCF89
:1000C0000E940601802D11F05FD0FACF089581E0E3
:1000D00061D00FD080E85EC08FE7213039F08FEB20
:1000E000223021F08FE8233009F08FEC810F0C943F
:1000F000CA0083E099277BC08AEF90E00E94F70056
:10010000A79AA69AA59AA49AA19AA09AA89885E0D7
:1001100090E00E94F700A998AF98AE98AD9AAC9A7B
:10012000A99AEF93FF93E0E6F0E00E94EB00FF91C5
:10013000EF91A99859D0A99AEF93FF93E0E6F0E0E8
:100140000E94EB00FF91EF91A9984ED0A99AEF93EE
:10015000FF93E0E6F0E00E94EB00FF91EF91A99899
:1001600043D0AC98A99AEF93FF93E0E6F0E00E94A9
:10017000EB00FF91EF91A99837D088E20BD08EE089
:1001800009D086E007D00895A89A829505D004D0BA
:100190002BD00895A898F9CF859510F4AC9A01C09A
:1001A000AC98859510F4AD9A01C0AD98859510F482
:1001B000AE9A01C0AE98859510F4AF9A01C0AF9881
:1001C000A99AEF93FF93E0E6F0E00E94EB00FF9125
:1001D000EF91A99808953197F1F70895689462F81E
:1001E0000895E89462F8089581E090E000C0EF93EC
:1001F000FF93EE27E82BE92B31F0E8EEF3E031979F
:10020000F1F70197D1F7FF91EF910895C8953196D5
:0A021000002008954D6F6869740026
:00000001FF
