:100000000C942A001895000018950000189500001F
:10001000189500001895000018950000189500002C
:10002000189500001895000018950000189500001C
:10003000189500001895000018950000189500000C
:1000400018950000189500001895000018950000FC
:10005000189500008FE58DBFC8E3E0E24E2E84E0E6
:100060008EBFD4E0F4E05F2EA89584B7082E877F7A
:1000700084BF88E1992781BD91BDEEEFF3E0A0E652
:10008000B0E088278D933197E9F789E189B980E05D
:1000900080BD88E18AB966248FEF84BB8FEF81BB76
:1000A00080E08ABB8D9A8C9A81EA8FBD81E08EBDFB
:1000B000EAE1F1E00E9472000E9479000C9458007D
:1000C000F894FFCF0E946A00A0E6B0E08D938827E5
:1000D0008C93089588275F9B089500C05F9BFECF97
:1000E0008CB108950E948900802D11F005D0FACFBF
:1000F00008958DE001D08AE05D9BFECF8CB9089514
:100100003197F1F70895689462F80895E89462F8D9
:100110000895C8953196002008954D6F6869740060
:00000001FF
