:100000000C942A001895000018950000189500001F
:10001000189500001895000018950000189500002C
:100020001895000018950000189500000C945A00CF
:10003000189500001895000018950000189500000C
:1000400018950000189500001895000018950000FC
:10005000189500008FE58DBFC8E3E0E24E2E84E0E6
:100060008EBFD4E0F4E05F2EA89584B7082E877F7A
:1000700084BF88E1992781BD91BDEEEFF3E0A0E652
:10008000B0E088278D933197E9F789E189B980E05D
:1000900080BD88E18AB966248FEF84BB7894579A33
:1000A000E6E7F1E00E94A0000E94A7000C94500037
:1000B000F894FFCF0F921F922F923F924F925F9230
:1000C0007F92AF92BF920F931F932F933F934F93C3
:1000D0005F936F937F938F939F93AF93BF93CF93D0
:1000E000DF93EF93FF938FB78F930E949800A0E662
:1000F000B0E08D9388278C938F918FBFFF91EF9104
:10010000DF91CF91BF91AF919F918F917F916F912F
:100110005F914F913F912F911F910F91BF90AF90A1
:100120007F905F904F903F902F901F900F90189569
:1001300088275F9B089500C05F9BFECF8CB1089518
:100140000E94B700802D11F005D0FACF08958DE000
:1001500001D08AE05D9BFECF8CB908953197F1F70D
:100160000895689462F80895E89462F80895C8952F
:0C0170003196002008956D6F68697400DE
:00000001FF
