:100000000C942A001895000018950000189500001F
:10001000189500001895000018950000189500002C
:10002000189500001895000018950000189500001C
:10003000189500001895000018950000189500000C
:1000400018950000189500001895000018950000FC
:10005000189500008FE58DBFC8E3E0E24E2E84E0E6
:100060008EBFD4E0F4E05F2EA89584B7082E877F7A
:1000700084BF88E1992781BD91BDEEEFF3E0A0E652
:10008000B0E088278D933197E9F766248FEF81BB25
:1000900089988FEF84BB8D9A8C9A81EA8FBD81E01D
:1000A0008EBD85E886B980E087B9379A07B1007EB2
:1000B000016007B90E949A00A0E6B0E08D939C937E
:1000C00081990C946800709162007068709362006E
:1000D000A0E3B0E00C9101FB81E00EF080E08F9393
:1000E000A2E6B0E08C9187FB81E00EF080E09F916A
:1000F0008923882311F40C948D00909A939889EBAE
:1001000090E09093490080934800AE9AAF9885EABA
:1001100090E090934B0080934A000C945600F89422
:10012000FFCF3197F1F70895689462F80895E89445
:1001300062F80895369A3699FECF369A3699FECFF0
:0601400084B195B10895A1
:00000001FF
