:100000000C942A001895000018950000189500001F
:10001000189500001895000018950000189500002C
:10002000189500001895000018950000189500001C
:10003000189500001895000018950000189500000C
:1000400018950000189500001895000018950000FC
:10005000189500008FE58DBFC8E3E0E24E2E84E0E6
:100060008EBFD4E0F4E05F2EA89584B7082E877F7A
:1000700084BF88E1992781BD91BDEEEFF3E0A0E652
:10008000B0E088278D933197E9F783E389B980E061
:1000900080BD88E18AB966248FEF87BBBE980E9435
:1000A0007E008FEF0E9487000E948B000E948900D3
:1000B000A0E6B0E08C9380E080936000A8E0B4E01C
:1000C000E0E6F0E00E94B3000E946C000E94740021
:1000D0000C945100F894FFCFA8E0B4E08D918823F0
:1000E00011F005D0FBCF08958DE001D08AE05D9B33
:1000F000FECF8CB908953197F1F70895BF9ABE9855
:10010000C69ABD9ABC9AC49A89ED8DB90895C498CF
:100110000895C49A08958FB9779BFECF8FB1089543
:10012000689462F80895E89462F80895000F111F2A
:10013000221F331F089500951095209530950F5F6D
:100140001F4F2F4F3F4F0895019110810EC0019115
:100150001191219130810BC00191108117FF05C0D1
:100160003FEF2FEF04C0008111272227332737FFED
:1001700003C0E1DF8DE28D93CF93DF93CF92DF92C7
:10018000EF92AA24BB24CC24DD24EE2440E2CAE072
:10019000DD2755E093E38881890F87FD9F7083FDFC
:1001A000907F891B89935A95A9F7C0DFAA1CBB1CB5
:1001B000CC1CDD1CEE1C4A9551F7E894EFE0FF27BC
:1001C00082910ED0EB30E0F71EF068948A2D0CD0AF
:1001D00088278D93EF90DF90CF90DF91CF91089596
:1001E000982F829501D0892F8F70805D26F0803303
:0A01F00009F4089568948D930895B2
:00000001FF
