:100000000C942A001895000018950000189500001F
:10001000189500001895000018950000189500002C
:10002000189500001895000018950000189500001C
:10003000189500001895000018950000189500000C
:1000400018950000189500001895000018950000FC
:10005000189500008FE58DBFC8E3E0E24E2E84E0E6
:100060008EBFD4E0F4E05F2EA89584B7082E877F7A
:1000700084BF88E1992781BD91BDEEEFF3E0A0E652
:10008000B0E088278D933197E9F783E389B980E061
:1000900080BD88E18AB9662436E00E94DA00A8E0D3
:1000A000B4E00E948801A0E6B0E00D931C9336E016
:1000B0000E94DA00A8E0B4E00E948801A2E6B0E065
:1000C0000D931C9381E090E0A4E6B0E08D939C93A7
:1000D000A2E6B0E04D915C91A4E6B0E00D911C91D8
:1000E000041715071CF011F00C948A00A6E6B0E086
:1000F0000D911C91A0E6B0E04D915C91040F151F8D
:10010000A6E6B0E00D931C93A4E6B0E00E94D300F5
:100110000C946800A0E6B0E00D911C91003050E016
:1001200015071CF011F00C9497000C94B300A0E696
:10013000B0E00D911C91A2E6B0E04D915C91041BE2
:10014000150BA0E6B0E00D931C93A8E6B0E00D916E
:100150001C9141E050E0040F151FA8E6B0E00D939C
:100160001C930C948A00EEE6F3E00E940101A8E0E3
:10017000B4E0E6E6F0E00E9437010E94F9000E9438
:100180000801E0E8F3E00E940101A8E0B4E0E8E63D
:10019000F0E00E9437010E94F9000E9408010C94CF
:1001A0004C00F894FFCFED91FC91EF5FFF4FFC9373
:1001B000EE930895A8E0B4E018D0883091F08D3027
:1001C00039F03323C9F38D933A9563FE24D0F4CFED
:1001D00063FC04C08DE01FD08AE01DD088278C937B
:1001E000089519D011973395E7CF5F9BFECF8CB15F
:1001F0000895A8E0B4E08D91882311F00CD0FBCFD6
:1002000008950E941801802D11F005D0FACF0895AD
:100210008DE001D08AE05D9BFECF8CB908953197C7
:10022000F1F70895689462F80895E89462F80895E3
:10023000C895319600200895040F151F261F371FFB
:100240000895000F111F221F331F08950095109568
:10025000209530950F5F1F4F2F4F3F4F089501910D
:1002600010810EC001911191219130810BC001913B
:10027000108117FF05C03FEF2FEF04C00081112749
:100280002227332737FF03C0E1DF8DE28D93CF9321
:10029000DF93CF92DF92EF92AA24BB24CC24DD24FB
:1002A000EE2440E2CAE0DD2755E093E38881890F20
:1002B00087FD9F7083FD907F891B89935A95A9F7CD
:1002C000C0DFAA1CBB1CCC1CDD1CEE1C4A9551F7E0
:1002D000E894EFE0FF2782910ED0EB30E0F71EF0BC
:1002E00068948A2D0CD088278D93EF90DF90CF9063
:1002F000DF91CF910895982F829501D0892F8F702B
:10030000805D26F0803309F4089568948D930895F4
:1003100000271127222733271DD08A3328F4803362
:1003200018F005D015D0F9CF0EF490CF0895805372
:100330008F93402F512F622F732F83DF82DF7CDF5B
:1003400080DF8F919927080F191F291F391F0895E2
:100350008D910895E894FCDF8032E9F38B32D9F374
:100360008930C9F38D3211F46894F2CF08954D7538
:100370006C7469706C69636174696F6E203D2000F4
:0C0380004469766964696F6E203D2000BE
:00000001FF
