:100000000C942A001895000018950000189500001F
:10001000189500001895000018950000189500002C
:10002000189500001895000018950000189500001C
:10003000189500001895000018950000189500000C
:1000400018950000189500001895000018950000FC
:10005000189500008FE58DBFC8E3E0E24E2E84E0E6
:100060008EBFD4E0F4E05F2EA89584B7082E877F7A
:1000700084BF88E1992781BD91BDEEEFF3E0A0E652
:10008000B0E088278D933197E9F70E948D016624AF
:1000900080E08ABB8FEF84BB86E886B980E087B9B1
:1000A00087E090E0A8E6B0E08D939C9380E991E032
:1000B000AAE6B0E08D939C9383E690E0ACE6B0E0D6
:1000C0008D939C938FEF90E0AEE6B0E08D939C9380
:1000D000379A07B1007E006007B90E941B02A0E6B4
:1000E000B0E08D939C9307B1007E016007B90E9438
:1000F0001B02A2E6B0E08D939C93A4E6B0E0BA9315
:10010000AA935A924A92A0E6B0E08D919C91D201B6
:100110008D939C9382E00E941702A8E6B0E0BA9308
:10012000AA93AAE6B0E0BA93AA930E94E3002896A5
:1001300082E00E946501A6E6B0E0BA93AA935A92C3
:100140004A92A2E6B0E08D919C91D2018D939C934E
:1001500082E00E941702ACE6B0E0BA93AA93AEE642
:10016000B0E0BA93AA930E94E300289682E00E942E
:1001700065010E9478018FE711E00E948701E0EF9E
:10018000F7E00E947101A8E0B4E0E4E6F0E00E942C
:10019000A1030E946901E2EFF7E00E947101A8E06B
:1001A000B4E0E6E6F0E00E94A1030E946901E4EFFA
:1001B000F7E00E94710182E390E00E9408020C9433
:1001C0006900F894FFCF8FEF93E0A0E7B0E08D9344
:1001D0009C93EA81FB81D190E0808FEFE7FE882736
:1001E000F82E082F0E9486020E94B8022F933F9398
:1001F0004F935F93E881F981D190E0808FEFE7FE24
:100200008827F82E082F0E9486025F914F913F9118
:100210002F910E942A03EDE0F0E0A2E7B0E00E94F7
:10022000F203E2E7F0E00E946702E0E7F0E0D1903D
:10023000E0808FEFE7FE8827F82E082F0E948602C5
:100240000E94D302EDE0F0E0A2E7B0E00E94F203EA
:10025000E2E7F0E00E946702EC81FD81D190E0804E
:100260008FEFE7FE8827F82E082F0E9486020E9453
:10027000D302EDE0F0E0A2E7B0E00E94F203E2E793
:10028000F0E00E946702EA81FB81D190E0808FEF6D
:10029000E7FE8827F82E082F0E9486020E94390365
:1002A000EDE0F0E0A2E7B0E00E94F203E2E7F0E068
:1002B0000E942402AE81BF81EE0C000FE794DD9214
:1002C000EC920895481A590A0895481A8827580A3E
:1002D0000895A8E0B4E08D91882311F066D0FBCF9B
:1002E00008950E948703802D11F05FD0FACF089502
:1002F00081E061D00FD080E85EC08FE7213039F017
:100300008FEB223021F08FE8233009F08FEC810F42
:100310000C94DB0183E099277BC08AEF90E00E9478
:100320000802A79AA69AA59AA49AA19AA09AA89810
:1003300085E090E00E940802A998AF98AE98AD9A27
:10034000AC9AA99AEF93FF93E4ECF0E00E94FC01D1
:10035000FF91EF91A99859D0A99AEF93FF93E4ECFC
:10036000F0E00E94FC01FF91EF91A9984ED0A99A6C
:10037000EF93FF93E4ECF0E00E94FC01FF91EF911A
:10038000A99843D0AC98A99AEF93FF93E4ECF0E0DE
:100390000E94FC01FF91EF91A99837D088E20BD021
:1003A0008EE009D086E007D00895A89A829505D0FE
:1003B00004D02BD00895A898F9CF859510F4AC9A65
:1003C00001C0AC98859510F4AD9A01C0AD988595A3
:1003D00010F4AE9A01C0AE98859510F4AF9A01C0A2
:1003E000AF98A99AEF93FF93E4ECF0E00E94FC0130
:1003F000FF91EF91A99808953197F1F708956894C6
:1004000062F80895E89462F8089581E090E000C0F1
:10041000EF93FF93EE27E82BE92B31F0E0EDF7E0C7
:100420003197F1F70197D1F7FF91EF910895480EB9
:100430008827581E0895369A3699FECF369A3699EF
:10044000FECF84B195B108953DD0992711278F2D06
:10045000880F80E8F82A802F881F08F41FEF41F0EA
:100460008F57082F07FD04C0003240F08FEF01C006
:100470008827982FD82EE82EF82E09C08FE1801BF0
:10048000082FF694E794D79497950A95D1F71123FE
:1004900051F09095D094E094F09481E0980F8827E3
:1004A000D81EE81EF81E0F2DFE2CED2CD92E089517
:1004B000D094E094F09491E0D90E9927E91EF91EAA
:1004C00010950895D190E190F190019108952191B6
:1004D0003191419151910895102F90E8FF0C001F28
:1004E0000927990FF7941078652F90E8440F551F4E
:1004F0005927990F4795607800380895FF0C90E8C8
:100500009027110F9795F794092F0895102FBD2C60
:10051000DE2CEF2CF02E11234AF4B094D094E0940A
:10052000F0949FEFB91AD90AE90AF90A0EE1FF20FF
:1005300039F4FE2CED2CDB2CBB240850C2F767C02D
:1005400032F00A95BB0CDD1CEE1CFF1CF9CF0E949B
:10055000AA02D4CFB7FE089590E8B91611F4D0FEE0
:1005600008959FEFD91AE90AF90A09F40395089545
:10057000502F2D2D3E2D4F2D612F08952DEC3CEC4D
:100580004CEC5DE366270FC09DDFF2DFDD24EE2437
:1005900090E8F92E0FE307C09ADF05C02227332722
:1005A00040E251E46627552351F1002381F194DFA5
:1005B00071F11627005850580894050B18F407FDE0
:1005C00003C025C007FD23C0469537952795F694AF
:1005D000E794D79422D0FF202AF0DD0CEE1CFF1CFC
:1005E000015073F09D2D969548F0DD203AF4EE20F1
:1005F0002AF491E0D90E9927E91EF91E7FCF07C092
:100600009FE7092FF92A9FEFD92EE92E0895DD24BF
:10061000EE24FF240027112708959F929924AA24ED
:10062000BB2488E1D216E306F40628F0D21AE30AC6
:10063000F40A089401C08894991CAA1CBB1CDD0C08
:10064000EE1CFF1C8A9571F7D92CEA2CFB2C9F908D
:1006500008953DDF41DF503829F090E869270CC04C
:100660000AF045D04BCF5FE322273327442701C050
:100670002EDF32DF5038B1F3003899F3902F951BFD
:100680008BF312F434D0FACF983118F022273327A5
:100690004427983028F0232F342F44279850F9CF3F
:1006A000992329F04695379527959A95D9F7912F53
:1006B000962742F014D0B0F6F794E794D7940F5FE2
:1006C0008BF69ECF10D051F008F4F2DEFF2052F2EC
:1006D000DD0CEE1CFF1C0150CBF792CF98CFD20E51
:1006E000E31EF41E0895D21AE30AF40A0895DF9275
:1006F000EF92FF920F931F93D22EE32EF42E052F2D
:10070000162F6F915F914F913F912F910895C8954A
:10071000319600200895000F111F221F331F0895E6
:1007200000951095209530950F5F1F4F2F4F3F4F2D
:100730000895019110810EC0019111912191308194
:100740000BC00191108117FF05C03FEF2FEF04C0D0
:10075000008111272227332737FF03C0E1DF8DE215
:100760008D93CF93DF93CF92DF92EF92AA24BB2495
:10077000CC24DD24EE2440E2CAE0DD2755E093E3FB
:100780008881890F87FD9F7083FD907F891B8993E6
:100790005A95A9F7C0DFAA1CBB1CCC1CDD1CEE1CA3
:1007A0004A9551F7E894EFE0FF2782910ED0EB30A5
:1007B000E0F71EF068948A2D0CD088278D93EF9077
:1007C000DF90CF90DF91CF910895982F829501D03F
:1007D000892F8F70805D26F0803309F40895689426
:1007E0008D93089594E081918D939A95E1F7089502
:0607F00028002C00290086
:00000001FF
