:100000000C942A001895000018950000189500001F
:10001000189500001895000018950000189500002C
:10002000189500001895000018950000189500001C
:10003000189500001895000018950000189500000C
:1000400018950000189500001895000018950000FC
:10005000189500008FE58DBFC8E3E0E24E2E84E0E6
:100060008EBFD4E0F4E05F2EA89584B7082E877F7A
:1000700084BF88E1992781BD91BDEEEFF3E0A0E652
:10008000B0E088278D933197E9F76624AA81BB8178
:100090000D911C91003050E015070CF402C00C9437
:1000A0007100AA81BB810D911C91A881B9814D91EC
:1000B0005C91041B150BAA81BB810D931C93E8E492
:1000C000F2E00E941501E4E6F0E00E9489000E943F
:1000D000C300EDE0F0E0A4E6B0E00E941E010C9445
:1000E000460008950C944600F894FFCF3197F1F73D
:1000F0000895689462F80895E89462F80895D09499
:10010000E094F09491E0D90E9927E91EF91E10951C
:100110000895D190E190F19001910895219131914C
:10012000419151910895102F90E8FF0C001F09276D
:10013000990FF7941078652F90E8440F551F5927B1
:10014000990F4795607800380895FF0C90E8902744
:10015000110F9795F794092F08959FE7092FF92A12
:100160009FEFD92EE92E0895DD24EE24FF240027E9
:10017000112708950AF045D0E8CF5FE322273327FF
:10018000442701C0CBDFCFDF5038B1F3003899F3FB
:10019000902F951B8BF312F434D0FACF983118F0CE
:1001A000222733274427983028F0232F342F442741
:1001B0009850F9CF992329F04695379527959A9528
:1001C000D9F7912F962742F014D0B0F6F794E79420
:1001D000D7940F5F8BF6C1CF10D051F008F48FDFAA
:1001E000FF2052F2DD0CEE1CFF1C0150CBF7B5CF07
:1001F000BBCFD20EE31EF41E0895D21AE30AF40A0E
:100200000895DF92EF92FF920F931F93D22EE32E69
:10021000F42E052F162F6F915F914F913F912F91E3
:100220000895C895319600200895FBDF202DF9DF51
:10023000302DF7DF402DF5DF502D089594E08191AA
:0C0240008D939A95E1F708950000803F2F
:00000001FF
