:100000000C942A001895000018950000189500001F
:10001000189500001895000018950000189500002C
:10002000189500001895000018950000189500001C
:10003000189500001895000018950000189500000C
:1000400018950000189500001895000018950000FC
:10005000189500008FE58DBFC8E3E0E24E2E84E0E6
:100060008EBFD4E0F4E05F2EA89584B7082E877F7A
:1000700084BF88E1992781BD91BDEEEFF3E0A0E652
:10008000B0E088278D933197E9F766248FEF87BB1F
:10009000BE9888980E949900A0E3B0E00C9100FB04
:1000A00081E00EF480E08F9300916200003081E0E7
:1000B00009F080E09F918923882311F40C94630058
:1000C00081E080936200A0E3B0E00C9100FB81E04E
:1000D0000EF080E08F9300916200013081E009F022
:1000E00080E09F918923882311F40C949200009161
:1000F0006100043610F00C949200A1E6B0E08C91FF
:100100008B5F8C9384E690E00E94B100A1E6B0E0A2
:100110008C910E94A2000E94A6000E94A400A0E66A
:10012000B0E08C930C944C00F894FFCF3197F1F72A
:100130000895BF9ABE98C69ABD9ABC9AC49A81ED9A
:100140008DB90895C4980895C49A08958FB9779B7E
:10015000FECF8FB10895689462F80895E89462F82C
:100160000895EF93FF93EE27E82BE92B31F0E0EDB4
:10017000F7E03197F1F70197D1F7FF91EF910895EB
:00000001FF
