:100000000C942A001895000018950000189500001F
:10001000189500001895000018950000189500002C
:10002000189500001895000018950000189500001C
:10003000189500001895000018950000189500000C
:1000400018950000189500001895000018950000FC
:10005000189500008FE58DBFC8E3E0E24E2E84E0E6
:100060008EBFD4E0F4E05F2EA89584B7082E877F7A
:1000700084BF88E1992781BD91BDEEEFF3E0A0E652
:10008000B0E088278D933197E9F766248FEF81BB25
:1000900085E886B980E087B98D9A8C9A81EA8FBD10
:1000A00081E08EBD379A07B1007E006007B90E94DB
:1000B0000202A2E6B0E08D939C93A6E3B0E00C911F
:1000C00000FB81E00EF480E08F93A0E6B0E00D919C
:1000D0001C91003050E0150781E009F080E09F910D
:1000E0008923882311F40C947B0081E090E0A0E642
:1000F000B0E08D939C93A6E3B0E00C9100FB81E00F
:100100000EF080E08F93A0E6B0E00D911C910130DD
:1001100050E0150781E009F080E09F918923882352
:1001200011F40C949F00909A92988FEF90E09BBDF1
:100130008ABD82E090E0A0E6B0E08D939C93A6E3B8
:10014000B0E00C9100FB81E00EF480E08F93A0E61C
:10015000B0E00D911C91023050E0150781E009F0EC
:1001600080E09F918923882311F40C94BD0083E0E3
:1001700090E0A0E6B0E08D939C93A6E3B0E00C91F4
:1001800000FB81E00EF080E08F93A0E6B0E00D91DF
:100190001C91033050E0150781E009F080E09F9149
:1001A0008923882311F40C94DB0084E090E0A0E61E
:1001B000B0E08D939C93A6E3B0E00C9100FB81E04E
:1001C0000EF480E08F93A0E6B0E00D911C91043016
:1001D00050E0150781E009F080E09F918923882392
:1001E00011F40C94F90086E090E0A0E6B0E08D9365
:1001F0009C93A6E3B0E00C9100FB81E00EF480E05C
:100200008F93A0E6B0E00D911C91063050E01507E9
:1002100081E009F080E09F918923882311F40C94F8
:100220001D019098929A8FEF90E09BBD8ABD87E068
:1002300090E0A0E6B0E08D939C93A6E3B0E00C9133
:1002400000FB81E00EF080E08F93A0E6B0E00D911E
:100250001C91073050E0150781E009F080E09F9184
:100260008923882311F40C943B0188E090E0A0E6F8
:10027000B0E08D939C93A6E3B0E00C9100FB81E08D
:100280000EF480E08F93A0E6B0E00D911C91083051
:1002900050E0150781E009F080E09F9189238823D1
:1002A00011F40C94590189E090E0A0E6B0E08D9340
:1002B0009C93A6E3B0E00C9100FB81E00EF080E09F
:1002C0008F93A0E6B0E00D911C91093050E0150726
:1002D00081E009F080E09F918923882311F40C9438
:1002E00077018AE090E0A0E6B0E08D939C93A6E3CE
:1002F000B0E00C9100FB81E00EF480E08F93A0E66B
:10030000B0E00D911C910A3050E0150781E009F032
:1003100080E09F918923882311F40C9495018BE050
:1003200090E0A0E6B0E08D939C93A6E3B0E00C9142
:1003300000FB81E00EF080E08F93A0E6B0E00D912D
:100340001C910B3050E0150781E009F080E09F918F
:100350008923882311F40C94B3018CE090E0A0E68B
:10036000B0E08D939C93A6E3B0E00C9100FB81E09C
:100370000EF480E08F93A0E6B0E00D911C910C305C
:1003800050E0150781E009F080E09F9189238823E0
:1003900011F40C94D1018DE090E0A0E6B0E08D93D3
:1003A0009C93A6E3B0E00C9100FB81E00EF080E0AE
:1003B0008F93A0E6B0E00D911C910D3050E0150731
:1003C00081E009F080E09F918923882311F40C9447
:1003D000F501909892988FEF90E09BBD8ABD80E0E8
:1003E00090E0A0E6B0E08D939C930C945300F894B9
:1003F000FFCF3197F1F70895689462F80895E89473
:1004000062F80895369A3699FECF369A3699FECF1D
:0604100084B195B10895CE
:00000001FF
