:100000000C942A001895000018950000189500001F
:10001000189500001895000018950000189500002C
:10002000189500001895000018950000189500001C
:10003000189500001895000018950000189500000C
:1000400018950000189500001895000018950000FC
:10005000189500008FE58DBFC8E3E0E24E2E84E0E6
:100060008EBFD4E0F4E05F2EA89584B7082E877F7A
:1000700084BF88E1992781BD91BDEEEFF3E0A0E652
:10008000B0E088278D933197E9F766248D9A8C9A92
:1000900081EA8FBD81E08EBD8FEF81BB80E087BBA1
:1000A000BB9ABC9A909A9198969A9798B0990C940A
:1000B000670086E990E099BD88BD80E090E09BBD37
:1000C0008ABDA89AA998AA98AB98C39AC498B199DE
:1000D0000C94780086E990E099BD88BD86E990E0AF
:1000E0009BBD8ABDA89AA998AA98AB9AC49AC398AE
:1000F000B2990C94890080E090E099BD88BD80E0C1
:1001000090E09BBD8ABDA898A998AA98AB98C4987E
:10011000C3980C945200F894FFCF3197F1F70895EB
:0C012000689462F80895E89462F808956D
:00000001FF
