:100000000C942A001895000018950000189500001F
:10001000189500001895000018950000189500002C
:10002000189500001895000018950000189500001C
:10003000189500001895000018950000189500000C
:1000400018950000189500001895000018950000FC
:10005000189500008FE58DBFC8E3E0E24E2E84E0E6
:100060008EBFD4E0F4E05F2EA89584B7082E877F7A
:1000700084BF88E1992781BD91BDEEEFF3E0A0E652
:10008000B0E088278D933197E9F766248FEF81BB25
:1000900080E087BBA6E3B0E00C9100FB81E00EF4AA
:1000A00080E08F93A0E6B0E00D911C91003050E00D
:1000B000150781E009F080E09F918923882311F4DE
:1000C0000C94680081E090E0A0E6B0E08D939C93F2
:1000D000A6E3B0E00C9100FB81E00EF080E08F938E
:1000E000A0E6B0E00D911C91013050E0150781E0D1
:1000F00009F080E09F918923882311F40C948A00F1
:10010000909A91989298939882E090E0A0E6B0E05F
:100110008D939C93A6E3B0E00C9100FB81E00EF47C
:1001200080E08F93A0E6B0E00D911C91023050E08A
:10013000150781E009F080E09F918923882311F45D
:100140000C94A80083E090E0A0E6B0E08D939C932F
:10015000A6E3B0E00C9100FB81E00EF080E08F930D
:10016000A0E6B0E00D911C91033050E0150781E04E
:1001700009F080E09F918923882311F40C94CA0030
:100180009098919A9298939880E090E0A0E6B0E0E1
:100190008D939C93A6E3B0E00C9101FB81E00EF4FB
:1001A00080E08F93A2E6B0E00D911C91003050E00A
:1001B000150781E009F080E09F918923882311F4DD
:1001C0000C94E80081E090E0A2E6B0E08D939C936F
:1001D000A6E3B0E00C9101FB81E00EF080E08F938C
:1001E000A2E6B0E00D911C91013050E0150781E0CE
:1001F00009F080E09F918923882311F40C940A016F
:100200009298939A9098919882E090E0A2E6B0E05C
:100210008D939C93A6E3B0E00C9101FB81E00EF47A
:1002200080E08F93A2E6B0E00D911C91023050E087
:10023000150781E009F080E09F918923882311F45C
:100240000C94280183E090E0A2E6B0E08D939C93AB
:10025000A6E3B0E00C9101FB81E00EF080E08F930B
:10026000A2E6B0E00D911C91033050E0150781E04B
:1002700009F080E09F918923882311F40C944A01AE
:10028000929A93989098919880E090E0A2E6B0E0DE
:100290008D939C930C944A00F894FFCF3197F1F71B
:0E02A0000895689462F80895E89462F808954D
:00000001FF
