:100000000C942A001895000018950000189500001F
:10001000189500001895000018950000189500002C
:10002000189500001895000018950000189500001C
:10003000189500001895000018950000189500000C
:1000400018950000189500001895000018950000FC
:10005000189500008FE58DBFC8E3E0E24E2E84E0E6
:100060008EBFD4E0F4E05F2EA89584B7082E877F7A
:1000700084BF88E1992781BD91BDEEEFF3E0A0E652
:10008000B0E088278D933197E9F766248FEF81BB25
:10009000899880E08ABB8D9A8C9A81EA8FBD81E035
:1000A0008EBD81990C945A0081E090E0A0E6B0E00A
:1000B0008D939C93A0E3B0E00C9101FB81E00EF0E6
:1000C00080E08F93A0E6B0E00D911C91013050E0EC
:1000D000150781E009F080E09F918923882311F4BE
:1000E0000C947E00979A9698939A909884EB90E05F
:1000F0009BBD8ABD8AEA90E099BD88BD0C945100F1
:10010000F894FFCF3197F1F70895689462F8089555
:06011000E89462F8089576
:00000001FF
