:100000000C942A001895000018950000189500001F
:10001000189500001895000018950000189500002C
:10002000189500001895000018950000189500001C
:10003000189500001895000018950000189500000C
:1000400018950000189500001895000018950000FC
:10005000189500008FE58DBFC8E3E0E24E2E84E0E6
:100060008EBFD4E0F4E05F2EA89584B7082E877F7A
:1000700084BF88E1992781BD91BDEEEFF3E0A0E652
:10008000B0E088278D933197E9F766248FEF87BB1F
:10009000BE988FEF84BB8FE0809360000E946A005F
:1000A00092E0A0E6B0E00E9460008AE090E00E944A
:1000B00082000C945000F894FFCF3197F1F7089527
:1000C0000E9473008D910E9477009A95D9F70E9443
:1000D00075000895BF9ABE98C69ABD9ABC9AC49AF4
:1000E00081ED8DB90895C4980895C49A08958FB983
:1000F000779BFECF8FB10895689462F80895E894D5
:1001000062F80895EF93FF93EE27E82BE92B31F087
:10011000E0EDF7E03197F1F70197D1F7FF91EF911B
:02012000089540
:00000001FF
