:100000000C942A001895000018950000189500001F
:10001000189500001895000018950000189500002C
:10002000189500001895000018950000189500001C
:10003000189500001895000018950000189500000C
:1000400018950000189500001895000018950000FC
:10005000189500008FE58DBFC8E3E0E24E2E84E0E6
:100060008EBFD4E0F4E05F2EA89584B7082E877F7A
:1000700084BF88E1992781BD91BDEEEFF3E0A0E652
:10008000B0E088278D933197E9F7662480E084BB40
:100090008FEF87BBBE980E94B50098990C945300CF
:1000A00081E080936300A3E3B0E00C9100FB81E06A
:1000B0000EF080E08F9300916300013081E009F041
:1000C00080E09F918923882311F40C94A700A1E676
:1000D000B0E00D911C91043650E015070CF402C0FD
:1000E0000C94A70080E090E0A1E6B0E08D939C9393
:1000F000A1E6B0E00D911C91043650E015071CF00C
:1001000011F00C94A7000091610045E00E94DC0012
:10011000A4E6B0E08C9300916400003011F00C94E0
:10012000A100A1E6B0E08C910E94BE000E94C20036
:100130000E94C000A0E6B0E08C9384E690E00E94AC
:10014000CD00A1E6B0E00E94AB000C9478000C94C6
:100150004D00F894FFCFED91FC91EF5FFF4FFC93C2
:10016000EE9308953197F1F70895BF9ABE98C69A15
:10017000BD9ABC9AC49A81ED8DB90895C49808952A
:10018000C49A08958FB9779BFECF8FB10895689474
:1001900062F80895E89462F80895EF93FF93EE27CC
:1001A000E82BE92B31F0E0EDF7E03197F1F701971B
:1001B000D1F7FF91EF910895FF93881BF9E0001F9D
:1001C000FA9511F4FF910895881F841B18F4840F89
:0801D0008894F5CF0894F3CFE9
:00000001FF
