:100000000C942A001895000018950000189500001F
:10001000189500001895000018950000189500002C
:10002000189500001895000018950000189500001C
:10003000189500001895000018950000189500000C
:1000400018950000189500001895000018950000FC
:10005000189500008FE58DBFC8E3E0E24E2E84E0E6
:100060008EBFD4E0F4E05F2EA89584B7082E877F7A
:1000700084BF88E1992781BD91BDEEEFF3E0A0E652
:10008000B0E088278D933197E9F70E94E00266245B
:100090008FEF81BB80E087BB899880E08ABB8FEFC0
:1000A00084BB8D9A8C9A81EA8FBD81E08EBD86E8F3
:1000B00086B980E087B981E090E0A0EFB0E08D9351
:1000C0009C93379A07B1007E026007B90E947A03B9
:1000D000A2E6B0E08D939C9307B1007E036007B960
:1000E0000E947A03A0E6B0E08D939C9307B1007E56
:1000F000046007B90E947A03A4E6B0E08D939C9354
:1001000007B1007E056007B90E947A03A6E6B0E059
:100110008D939C9307B1007E066007B90E947A0315
:10012000A8E6B0E08D939C930E94CB028FE712E08B
:100130000E94DA02A8E0B4E0E6EEF0E00E949D033F
:100140000E94C3028FEB11E00E94DA02A8E0B4E043
:10015000E8E6F0E00E949D030E94C3028FEB16E0E8
:100160000E94DA02A6EEB0E00D911C9142E050E050
:100170000E946A03A8E6B0E0A00FB11F0E94C5026A
:1001800084E690E00E945B03A0E3B0E00C9101FBE9
:1001900081E00EF480E08F93A2EEB0E00D911C910F
:1001A000003050E0150781E009F080E09F9189233D
:1001B000882311F40C94E20081E090E0A2EEB0E01C
:1001C0008D939C93A0E3B0E00C9101FB81E00EF0D5
:1001D00080E08F93A2EEB0E00D911C91013050E0D1
:1001E000150781E009F080E09F918923882311F4AD
:1001F0000C949D02A2E6B0E00D911C910C3B52E0E4
:1002000015071CF011F00C9407010C94150181E006
:1002100090E0A4EEB0E08D939C9381E090E0A8EE96
:10022000B0E08D939C930C949D02A8E6B0E00D91F4
:100230001C910C3B52E0150780E014F009F081E0BE
:100240008F93AAEEB0E00D911C91013050E015079C
:1002500081E009F080E09F918923882311F40C94B8
:10026000610181E090E0A8EEB0E08D939C9382E084
:1002700090E0A4EEB0E08D939C93ACEEB0E00D91D5
:100280001C91013050E0150711F00C94590183E0E6
:1002900090E0A4EEB0E08D939C9381E090E0A8EE16
:1002A000B0E08D939C9382E090E0ACEEB0E08D9353
:1002B0009C9382E090E0AAEEB0E08D939C930C9426
:1002C0009D02A4E6B0E00D911C910C3B52E0150795
:1002D00080E014F009F081E08F93A8EEB0E00D917A
:1002E0001C91013050E0150781E009F080E09F91FA
:1002F0008923882311F40C940D02A4EEB0E00D9133
:100300001C91013050E0150711F00C94AB01A6EEE2
:10031000B0E00D911C9141E050E0040F151FA6EED6
:10032000B0E00D931C93A6EEB0E00D911C9142E05D
:1003300050E00E946A03A8E6B0E0A00FB11FECED08
:10034000F7E00E94740385E090E0A4EEB0E08D93A6
:100350009C930C940502A4EEB0E00D911C91033027
:1003600050E0150711F00C94D901A6EEB0E00D9104
:100370001C9141E050E0040F151FA6EEB0E00D9374
:100380001C93A6EEB0E00D911C9142E050E00E945B
:100390006A03A8E6B0E0A00FB11FEEEDF7E00E94FF
:1003A000740385E090E0A4EEB0E08D939C930C94F0
:1003B0000502A4EEB0E00D911C91023050E015074B
:1003C00011F00C940502A6EEB0E00D911C9141E0F5
:1003D00050E0040F151FA6EEB0E00D931C93A6EE9F
:1003E000B0E00D911C9142E050E00E946A03A8E643
:1003F000B0E0A00FB11FE0EEF7E00E94740385E0CB
:1004000090E0A4EEB0E08D939C9382E090E0A8EEA3
:10041000B0E08D939C930C949D02A4E6B0E00D9106
:100420001C910C3B52E015071CF011F00C941A02C1
:100430000C941C020C949D02A0E6B0E00D911C915E
:100440000C3B52E015071CF011F00C9429020C949F
:100450002B020C949D02A8E6B0E00D911C910C3B80
:1004600052E015071CF011F00C9438020C94400275
:1004700081E090E0AAEEB0E08D939C930C949D02F5
:10048000A6E6B0E00D911C910C3B52E015071CF064
:1004900011F00C944D020C944F020C949D02A0E6B6
:1004A000B0E00D911C910C3B52E0150780E00CF47C
:1004B00081E08F93A2E6B0E00D911C910C3B52E0DD
:1004C000150780E00CF481E09F9189238F93A4E6C7
:1004D000B0E00D911C910C3B52E0150780E00CF44C
:1004E00081E09F9189238F93A6E6B0E00D911C9146
:1004F0000C3B52E0150780E00CF481E09F918923CA
:100500008F93A8E6B0E00D911C910C3B52E01507CB
:1005100080E00CF481E09F918923882311F40C94EE
:100520009D0281E090E0AAEEB0E08D939C9381E083
:1005300090E0ACEEB0E08D939C930C946200F89444
:10054000FFCF05D00E946A0300FC0CD00895002460
:10055000E89457FF02C009D0689400F80BD010F857
:100560000124089502D009D00895509540954F5F19
:100570005F4F0895E89417FF0895009510950F5F59
:100580001F4F68940895A8E0B4E08D91882311F07E
:100590005FD0FBCF089581E061D00FD080E85EC0CE
:1005A0008FE7213039F08FEB223021F08FE82330B4
:1005B00009F08FEC810F0C942E0383E099277BC008
:1005C0008AEF90E00E945B03A79AA69AA59AA49A44
:1005D000A19AA09AA89885E090E00E945B03A99850
:1005E000AF98AE98AD9AAC9AA99AEF93FF93E4ECCA
:1005F000F0E00E944F03FF91EF91A99859D0A99A7A
:10060000EF93FF93E4ECF0E00E944F03FF91EF9132
:10061000A9984ED0A99AEF93FF93E4ECF0E00E94E2
:100620004F03FF91EF91A99843D0AC98A99AEF930B
:10063000FF93E4ECF0E00E944F03FF91EF91A99843
:1006400037D088E20BD08EE009D086E007D008953D
:10065000A89A829505D004D02BD00895A898F9CFF8
:10066000859510F4AC9A01C0AC98859510F4AD9ABC
:1006700001C0AD98859510F4AE9A01C0AE988595ED
:1006800010F4AF9A01C0AF98A99AEF93FF93E4ECEE
:10069000F0E00E944F03FF91EF91A99808953197E0
:1006A000F1F70895689462F80895E89462F808955F
:1006B00081E090E000C0EF93FF93EE27E82BE92B59
:1006C00031F0E0EDF7E03197F1F70197D1F7FF91C5
:1006D000EF9108950F92B801469F8001479F100D3A
:1006E000569F100D0F9008950E9483030D920020D5
:1006F000D9F70895369A3699FECF369A3699FECFB5
:1007000084B195B10895C895319600200895000FE1
:10071000111F221F331F08950095109520953095C5
:100720000F5F1F4F2F4F3F4F0895019110810EC053
:1007300001911191219130810BC00191108117FF1E
:1007400005C03FEF2FEF04C0008111272227332778
:1007500037FF03C0E1DF8DE28D93CF93DF93CF921C
:10076000DF92EF92AA24BB24CC24DD24EE2440E2C5
:10077000CAE0DD2755E093E38881890F87FD9F70EC
:1007800083FD907F891B89935A95A9F7C0DFAA1C26
:10079000BB1CCC1CDD1CEE1C4A9551F7E894EFE025
:1007A000FF2782910ED0EB30E0F71EF068948A2D7F
:1007B0000CD088278D93EF90DF90CF90DF91CF9171
:1007C0000895982F829501D0892F8F70805D26F033
:1007D000803309F4089568948D9308956C00750032
:0207E0007200A5
:00000001FF
