:100000000C942A001895000018950000189500001F
:10001000189500001895000018950000189500002C
:10002000189500001895000018950000189500001C
:10003000189500001895000018950000189500000C
:1000400018950000189500001895000018950000FC
:10005000189500008FE58DBFC8E3E0E24E2E84E0E6
:100060008EBFD4E0F4E05F2EA89584B7082E877F7A
:1000700084BF88E1992781BD91BDEEEFF3E0A0E652
:10008000B0E088278D933197E9F783E389B980E061
:1000900080BD88E18AB9662481E090E0A8ECB0E0F8
:1000A0008D939C93A8ECB0E00D911C910A3050E028
:1000B00015071CF011F00C947200A8ECB0E00D9143
:1000C0001C9142E050E00E943604AEE5B0E0A00F83
:1000D000B11F31E00E940104A8ECB0E00E94D603F9
:1000E0000C94520081E090E0A4ECB0E08D939C93DE
:1000F000A4ECB0E00D911C91023350E015071CF008
:1001000011F00C94AD03A4ECB0E00D911C9142E011
:1001100050E00E943604AEE5B0E0A00FB11FE6EC5F
:10012000F8E00E944F0481E009F080E08F93A4EC96
:10013000B0E00D911C9142E050E00E943604AEE523
:10014000B0E0A00FB11FE8ECF8E00E944F0481E09E
:1001500009F080E09F91892B8F93A4ECB0E00D9182
:100160001C9142E050E00E943604AEE5B0E0A00FE2
:10017000B11FEAECF8E00E944F0481E009F080E052
:100180009F91892B882311F40C94A703A4ECB0E071
:100190000D911C9142E050E00E943604A0E6B0E0D0
:1001A000A00FB11FECECF8E00E944F0411F00C948A
:1001B000A703A4ECB0E00D911C9142E050E00E9436
:1001C0003604A2E6B0E0A00FB11FE6ECF8E00E9412
:1001D0004F0481E009F080E08F93A4ECB0E00D9132
:1001E0001C9142E050E00E943604AEE5B0E0A00F62
:1001F000B11FE8ECF8E00E944F0481E009F080E0D4
:100200009F918923882311F40C945101A4ECB0E050
:100210000D911C9142E050E00E943604AEE5B0E042
:10022000A00FB11FEAECF8E00E944004A4ECB0E09B
:100230008D919C91A6ECB0E08D939C93A6ECB0E0E0
:100240000D911C91023350E015071CF011F00C9435
:100250004901E6ECF0E00191108142E050E00E949B
:100260003604E4E6F0E0E00FF11FA6ECB0E00D91FB
:100270001C9142E050E00E943604A0E6B0E0A00FDE
:10028000B11F0E944A04A6ECB0E00E94D6030C9471
:100290001E0180E090E0A4ECB0E08D939C930C9460
:1002A000A703A4ECB0E00D911C9142E050E00E9445
:1002B0003604A2E6B0E0A00FB11FE6ECF8E00E9421
:1002C0004F0481E009F080E08F93A4ECB0E00D9141
:1002D0001C9142E050E00E943604AEE5B0E0A00F71
:1002E000B11FE6ECF8E00E944F0481E009F080E0E5
:1002F0009F918923882311F40C94C901A4ECB0E0E8
:100300000D911C9142E050E00E943604AEE5B0E051
:10031000A00FB11FE8ECF8E00E944004A4ECB0E0AC
:100320008D919C91A6ECB0E08D939C93A6ECB0E0EF
:100330000D911C91023350E015071CF011F00C9444
:10034000C101E6ECF0E00191108142E050E00E9432
:100350003604E4E6F0E0E00FF11FA6ECB0E00D910A
:100360001C9142E050E00E943604A0E6B0E0A00FED
:10037000B11F0E944A04A6ECB0E00E94D6030C9480
:10038000960180E090E0A4ECB0E08D939C930C94F7
:10039000A703A4ECB0E00D911C9142E050E00E9454
:1003A0003604A2E6B0E0A00FB11FE8ECF8E00E942E
:1003B0004F0481E009F080E08F93A4ECB0E00D9150
:1003C0001C9142E050E00E943604AEE5B0E0A00F80
:1003D000B11FE6ECF8E00E944F0481E009F080E0F4
:1003E0009F918923882311F40C944102A4ECB0E07E
:1003F0000D911C9142E050E00E943604AEE5B0E061
:10040000A00FB11FEAECF8E00E944004A4ECB0E0B9
:100410008D919C91A6ECB0E08D939C93A6ECB0E0FE
:100420000D911C91023350E015071CF011F00C9453
:100430003902E6ECF0E00191108142E050E00E94C8
:100440003604E4E6F0E0E00FF11FA6ECB0E00D9119
:100450001C9142E050E00E943604A0E6B0E0A00FFC
:10046000B11F0E944A04A6ECB0E00E94D6030C948F
:100470000E0280E090E0A4ECB0E08D939C930C948D
:10048000A703A4ECB0E00D911C9142E050E00E9463
:100490003604A2E6B0E0A00FB11FE6ECF8E00E943F
:1004A0004F0481E009F080E08F93A4ECB0E00D915F
:1004B0001C9142E050E00E943604AEE5B0E0A00F8F
:1004C000B11FEAECF8E00E944F0481E009F080E0FF
:1004D0009F918923882311F40C94B902A4ECB0E015
:1004E0000D911C9142E050E00E943604AEE5B0E070
:1004F000A00FB11FECECF8E00E944004A4ECB0E0C7
:100500008D919C91A6ECB0E08D939C93A6ECB0E00D
:100510000D911C91023350E015071CF011F00C9462
:10052000B102E6ECF0E00191108142E050E00E945F
:100530003604E4E6F0E0E00FF11FA6ECB0E00D9128
:100540001C9142E050E00E943604A0E6B0E0A00F0B
:10055000B11F0E944A04A6ECB0E00E94D6030C949E
:10056000860280E090E0A4ECB0E08D939C930C9424
:10057000A703A4ECB0E00D911C9142E050E00E9472
:100580003604A2E6B0E0A00FB11FE8ECF8E00E944C
:100590004F0481E009F080E08F93A4ECB0E00D916E
:1005A0001C9142E050E00E943604AEE5B0E0A00F9E
:1005B000B11FE8ECF8E00E944F0481E009F080E010
:1005C0009F918923882311F40C943103A4ECB0E0AB
:1005D0000D911C9142E050E00E943604AEE5B0E07F
:1005E000A00FB11FECECF8E00E944004A4ECB0E0D6
:1005F0008D919C91A6ECB0E08D939C93A6ECB0E01D
:100600000D911C91023350E015071CF011F00C9471
:100610002903E6ECF0E00191108142E050E00E94F5
:100620003604E4E6F0E0E00FF11FA6ECB0E00D9137
:100630001C9142E050E00E943604A0E6B0E0A00F1A
:10064000B11F0E944A04A6ECB0E00E94D6030C94AD
:10065000FE0280E090E0A4ECB0E08D939C930C94BB
:10066000A703A4ECB0E00D911C9142E050E00E9481
:100670003604A2E6B0E0A00FB11FEAECF8E00E9459
:100680004F0481E009F080E08F93A4ECB0E00D917D
:100690001C9142E050E00E943604AEE5B0E0A00FAD
:1006A000B11FE6ECF8E00E944F0481E009F080E021
:1006B0009F918923882311F40C94A703A4ECB0E044
:1006C0000D911C9142E050E00E943604AEE5B0E08E
:1006D000A00FB11FECECF8E00E944004A4ECB0E0E5
:1006E0008D919C91A6ECB0E08D939C93A6ECB0E02C
:1006F0000D911C91023350E015071CF011F00C9481
:10070000A103E6ECF0E00191108142E050E00E948C
:100710003604E4E6F0E0E00FF11FA6ECB0E00D9146
:100720001C9142E050E00E943604A0E6B0E0A00F29
:10073000B11F0E944A04A6ECB0E00E94D6030C94BC
:10074000760380E090E0A4ECB0E08D939C93A4EC61
:10075000B0E00E94D6030C94780081E090E0AAEC0F
:10076000B0E08D939C93AAECB0E00D911C91053004
:1007700050E015071CF011F00C94D403AAECB0E083
:100780000D911C9142E050E00E943604AEE5B0E0CD
:10079000A00FB11F0E9420040E942604AAECB0E022
:1007A0000E94D6030C94B303F894FFCFED91FC9113
:1007B000EF5FFF4FFC93EE93089505D00E9436043F
:1007C00000FC0CD008950024E89457FF02C009D023
:1007D000689400F80BD010F80124089502D009D0D5
:1007E0000895509540954F5F5F4F0895E89417FF27
:1007F0000895009510950F5F1F4F68940895A8E025
:10080000B4E018D0883091F08D3039F03323C9F33B
:100810008D933A9563FE1DD0F4CF63FC04C08DE048
:1008200018D08AE016D088278C93089512D011979B
:100830003395E7CF5F9BFECF8CB10895A8E0B4E07D
:100840008D91882311F005D0FBCF08958DE001D064
:100850008AE05D9BFECF8CB908953197F1F708953A
:10086000689462F80895E89462F808950F92B801C8
:10087000469F8001479F100D569F100D0F900895C1
:100880000E9446040D920020D9F70895C89531962C
:100890000020089581918D938823E1F7089568944D
:1008A00001C0E894AF93BF938D9116F0919103C06E
:1008B0000E944604902D891718F011F48823A1F79F
:0E08C000BF91AF9108956C0073007200750037
:00000001FF
